:020000040000FA
:060000000A128A11EC2F28
:100C9600C034F934A434B034993492348234F834FC
:100CA600803490347E088A007F0882000A128A11F6
:100CB60055260A128A118000840A04087D06031943
:100CC6000034FF0A0319FE0A592EF501F31F6C2E94
:100CD6006D2E742EF209F309F20A0319F30AF501CF
:100CE600F50AF11F772E782E7D2EF009F109F00A0C
:100CF6000319F10A700871040319822E832EB22E8D
:100D0600F401F40A912E01300310F00DF10DFF3EAF
:100D1600031D872E0130FF007F08F407F11F942E74
:100D2600952E862E71087302031D9B2E7008720283
:100D3600031C9E2E9F2EA52E7008F2027108031C1E
:100D4600F303F30201300310F10CF00CFF3E031D18
:100D5600A62E0130F402031DB12EB22E952E750873
:100D66000319B62EB72EBC2EF209F309F20A03199F
:100D7600F30A7308F1007208F0000800F501F11F8C
:100D8600C52EC62ECD2EF009F109F00A0319F10A77
:100D9600F501F50AF31FD02ED12EDA2EF209F3094A
:100DA600F20A0319F30A0130FF007F08F506F6017F
:100DB600F701700871040319E12EE22E192FF401D0
:100DC600F40AF02E01300310F00DF10DFF3E031D65
:100DD600E62E0130FF007F08F407F11FF32EF42EF4
:100DE600E52E01300310F60DF70DFF3E031DF52E1F
:100DF60071087302031D012F70087202031C042F71
:100E0600052F0C2F7008F2027108031CF303F3027E
:100E1600761401300310F10CF00CFF3E031D0D2F6C
:100E26000130F402031D182F192FF42E750803192B
:100E36001D2F1E2F232FF609F709F60A0319F70AA5
:100E46007708F1007608F000080080308316031357
:100E5600860007308700850183120313850186010A
:100E66008701880183160313880183120313861FE3
:100E76003D2F3E2F422F0718412F422F722F013050
:100E8600FB070318FC0A0030FC077C08803AFF00C9
:100E960080307F02031D512F14307B020318542F1C
:100EA600552F582F8312031305107C08803AFF0034
:100EB60080307F02031D612F14307B02031C642FD8
:100EC600652F682F83120313051464307B067C0498
:100ED600031D6E2F6F2FB12FFB01FC01B12F871C55
:100EE600752F762F7A2F0719792F7A2FB12FFF308A
:100EF600FB070318FC0AFF30FC077C08803AFF005A
:100F060080307F02031D892F01307B0203188C2F4E
:100F16008D2F912F6330FB000030FC007C08803A57
:100F2600FF0080307F02031D9A2F14307B020318C6
:100F36009D2F9E2FA12F8312031305107C08803A44
:100F4600FF0080307F02031DAA2F14307B02031C92
:100F5600AD2FAE2FB12F8312031305140A30F00004
:100F66000030F1007C08F3007B08F2000A128A11B7
:100F760068260A128A117008203E8400831300082E
:100F86008312031388000A30F0000030F1007C0859
:100F9600F3007B08F2000A128A11C1260A128A118E
:100FA6007008203E84008313000883120313860012
:100FB6001A30FA005E30F9006E30F800F80BE12FB7
:100FC600F90BE12FFA0BE12F0000382F0A128A11D4
:100FD600002883132A30FD000630FE004B30FF0048
:100FE600203084000A128A1159260A128A11FB013E
:0A0FF600FC0183010A128A11282F62
:02400E007A3FF7
:00000001FF
